:020000040800F2
:1000000048080020ED0100088D0D00080D0D0008C6
:10001000890D00087F040008271200080000000076
:10002000000000000000000000000000410F000878
:10003000BD0B000800000000C50E00088D10000870
:10004000070200080702000807020008070200086C
:10005000070200080702000807020008070200085C
:10006000070200080702000807020008070200084C
:10007000070200080702000807020008070200083C
:10008000070200080702000807020008070200082C
:10009000850400080702000807020008070200089C
:1000A000070200080702000807020008070200080C
:1000B00007020008070200080702000807020008FC
:1000C00007020008070200080702000807020008EC
:1000D0000702000841110008070200080702000893
:1000E00007020008070200080702000800000000DD
:1000F0000000000000000000000000000000000000
:1001000000000000000000000702000807020008CD
:10011000070200080702000807020008070200089B
:10012000070200080702000807020008070200088B
:10013000070200080702000807020008070200087B
:10014000CD040008070200080702000807020008A3
:1001500000F002F800F03AF80AA090E8000C82449F
:100160008344AAF10107DA4501D100F02FF8AFF27C
:10017000090EBAE80F0013F0010F18BFFB1A43F085
:1001800001031847481F0000681F0000103A24BFF1
:1001900078C878C1FAD8520724BF30C830C144BFEC
:1001A00004680C607047000000230024002500262E
:1001B000103A28BF78C1FBD8520728BF30C148BFCA
:1001C0000B6070471FB51FBD10B510BD00F033F8B0
:1001D0001146FFF7F7FF01F0A3FA00F051F803B45E
:1001E000FFF7F2FF03BC01F020F800000948804748
:1001F00009480047FEE7FEE7FEE7FEE7FEE7FEE709
:10020000FEE7FEE7FEE7FEE704480549054A064B20
:1002100070470000D5100008510100084802002076
:100220004808002048040020480400207047704718
:10023000704770477047754600F028F8AE460500D5
:100240006946534620F00700854618B020B5FFF7F1
:10025000DBFFBDE820404FF000064FF000074FF0F5
:1002600000084FF0000B21F00701AC46ACE8C009D4
:10027000ACE8C009ACE8C009ACE8C0098D467047DD
:100280000446AFF300802046FFF7A9FF00487047FF
:10029000E401002021B1826842F00102826003E0A3
:1002A000826822F0010282607047000010B50446A7
:1002B0001248844208D10121401500F031FE00218E
:1002C000601500F02DFE17E00D48844208D1012191
:1002D000001500F025FE0021201500F021FE0BE0A6
:1002E0000848844208D10121C80300F019FE00210A
:1002F0004FF4004000F014FE10BD00000024014047
:1003000000280140003C0140014600208A6802F0BC
:1003100004020AB1012000E0002070470146C86CC9
:1003200080B270470246002013680B400BB10120D9
:1003300000E000207047014600208A6802F00802B1
:100340000AB1012000E000207047000030B50246ED
:100350000020002350680F4C20400D790C6844EABF
:1003600005242043506090680B4C2040D1E9025492
:100370002C434D7944EA450420439060D06A20F430
:1003800070000C7C641EE4B2234340EA0350D06248
:1003900030BD0000FFFEF0FFFDF7F1FFF0B50446B1
:1003A0000D4600200021092D11DDE068A5F10A06A7
:1003B00006EB4607072606FA07F18843A5F10A0669
:1003C00006EB460603FA06F10843E0600CE02069FC
:1003D00005EB4507072606FA07F1884305EB4506B6
:1003E00003FA06F108432061072A0FDA606B561EF4
:1003F00006EB86071F2606FA07F18843561E06EB12
:10040000860605FA06F10843606322E00D2A0FDA3A
:10041000206BD61F06EB86071F2606FA07F18843D6
:10042000D61F06EB860605FA06F10843206310E0A6
:10043000E06AA2F10D0606EB86071F2606FA07F111
:100440008843A2F10D0606EB860605FA06F108437D
:10045000E062F0BD816841F008018160704721B120
:10046000826842F4A002826003E0826822F4A00263
:1004700082607047816841F004018160704700BF6D
:10048000FEE7000010B586B001AA00210C4800F07C
:100490004CF90198042811D1002407E00DF10F0058
:1004A000005D40B207490855601CC4B2082CF5DB5A
:1004B000044800F03DFF01200349086006B010BD6C
:1004C00000640040380000205C00002010B586B0B9
:1004D00001AA0021074800F028F9002406E00DF1E8
:1004E0000F00005D40B204490855641C082CF6DB7F
:1004F00006B010BD006800404000002010B500218B
:10050000837A012202FA03F13D4A126842F00102A5
:100510003B4B1A603A4A1C3212688A43384B1C33F0
:100520001A60027BCAB9364A0C3212688A43344BCD
:100530000C331A604288C38842EA0343304A40328F
:10054000847A42F834300288838842EA03432C4A92
:100550004032847A02EBC4025360027B012A19D133
:10056000274A0C3212680A43254B0C331A60428822
:10057000038842EA0343224A4032847A42F8343004
:10058000C288838842EA03431D4A4032847A02EBE0
:10059000C4025360C27A3AB9194A121D12688A43DA
:1005A000174B1B1D1A6006E0154A121D12680A43FC
:1005B000134B1B1D1A60028932B9114A143212689A
:1005C0008A430F4B14331A600289012A06D10C4A60
:1005D000143212680A430A4B14331A60427B012A10
:1005E00006D1074A1C3212680A43054B1C331A60B5
:1005F000034A126822F00102014B1A6010BD00008C
:10060000006600401AB143690B43436102E043694D
:100610008B434361704730B50246002000231468C5
:1006200024F002041460146844F00104146000E033
:100630005B1C546804F001041CB94FF6FF74A3421C
:10064000F6D1546804F001040CB900206CE08C79F8
:10065000012C04D1146844F08004146003E0146891
:1006600024F080041460CC79012C04D1146844F087
:100670004004146003E0146824F0400414600C7A11
:10068000012C04D1146844F02004146003E01468C1
:1006900024F0200414604C7A012C04D1146844F036
:1006A0001004146003E0146824F0100414608C7AC1
:1006B000012C04D1146844F00804146003E01468A9
:1006C00024F008041460CC7A012C04D1146844F09E
:1006D0000404146003E0146824F0040414608C78AB
:1006E000A407CD7844EA05640D7944EA05444D79C0
:1006F00044EA05540D886D1E2C43D461146824F01F
:1007000001041460002300E05B1C546804F0010441
:100710001CB14FF6FF74A342F6D1546804F00104F3
:100720000CB1002000E0012030BD10B500F5D873F9
:1007300003EB01131B6803F004031372137A53B91C
:1007400000F5D87303EB01131B6840F2FF7404EA51
:100750005353136009E000F5D87303EB01131B68D2
:100760006FF0604404EAD303536000F5D87303EBE1
:1007700001131B6803F00203537200F5D87303EBF7
:1007800001135B6803F00F03937200F5D87303EB5A
:1007900001135B681B0AD37400F5D87303EB0113D4
:1007A0009B68D37200F5D87303EB01139B681C0A96
:1007B000147300F5D87303EB01139B681C0C54737E
:1007C00000F5D87303EB01139B681B0E937300F5C0
:1007D000D87303EB0113DB68D37300F5D87303EB15
:1007E0000113DB681C0A147400F5D87303EB0113C2
:1007F000DB681C0C547400F5D87303EB0113DB6841
:100800001B0E937421B9C36843F02003C36003E057
:10081000036943F02003036110BD10B502460020B8
:10082000936803F08063B3F1806F00D110E09368A8
:1008300003F00063B3F1006F01D1012008E0936879
:1008400003F08053B3F1805F01D1022000E0042067
:10085000042874D002F5C07303EB00131B6803F087
:10086000010402F5C07303EB00131C600B7A7BB923
:100870004B7A0C8843EA445302F5C07404EB00142D
:100880002468234302F5C07404EB0014236010E0D5
:100890000B7A4C6843EAC4034C7A234302F5C074D4
:1008A00004EB00142468234302F5C07404EB001425
:1008B00023608B7A03F00F038B7202F5C07303EB96
:1008C00000135B6823F00F0402F5C07303EB001301
:1008D0005C6002F5C07303EB00135B688C7A234302
:1008E00002F5C07404EB001463608B7B1C064B7B29
:1008F00044EA03440B7B44EA0323CC7A234302F506
:10090000C07404EB0014A3608B7C1C064B7C44EA8F
:1009100003440B7C44EA0323CC7B234302F5C074DD
:1009200004EB0014E36002F5C07303EB00131B68D3
:1009300043F0010402F5C07303EB00131C6010BD0B
:1009400010B50246002321B1012907D002290FD199
:1009500009E090681D4C00EA04030BE090681C4C11
:1009600000EA040306E090681A4C00EA040301E080
:10097000002300BF00BF184C181BA34216D007DC91
:1009800083B16FF08060184470B1022818D111E073
:10099000B0F5007F10D0114C204448B1B0F5003FB5
:1009A0000ED10BE002230DE000230BE0002309E051
:1009B000002307E0012305E0012303E0012301E018
:1009C000002300BF00BFD8B210BD00000300000428
:1009D0000003000800000310000100080001FFF7F9
:1009E0002DE9F04F87B00020069005900490039009
:1009F000814682460290002400BFBBE004EB440025
:100A0000614911F8200000F0F000019004EB44006F
:100A100011F8200000F00F0B04EB440011F8200047
:100A20005A49087004EB4400574901EB80000079F3
:100A30005649487000231A4619464FF07E5000F080
:100A400031FA0123524A0021524800F02BFA0223C6
:100A5000002211464FF07E5000F024FABBF1010F46
:100A600003D0BBF1020F7DD13FE004EB44004649C7
:100A700001EB8000008900B24449C8804648006804
:100A8000012807D10846C08844F6FD21081A00B2A3
:100A90004249088042490988933942F2107201FBA9
:100AA00002F001F0D0F807464FF066323D4B00F0FF
:100AB00043FF054601F098F800B23B490880002248
:100AC0000846B0F900103548B0F9000000F098F978
:100AD0003649C86901F084F90FFA80F908234A46BB
:100AE0009021022000F01CFD42E004EB4400264966
:100AF00001EB8000008900B2244908812648006883
:100B0000012807D10846008943F21611081A00B2DD
:100B10002749088027490988573942F2107201FB9A
:100B200002F001F090F805464FF066321D4B00F0E0
:100B300003FF074601F058F800B21F490880012260
:100B40000846B0F900101A48B0F9000000F058F952
:100B50001649C86B01F044F90FFA80FA082352468F
:100B6000902100E003E0032000F0DAFC00E000BF89
:100B700000BF641C032CFFF641AF0020064908604B
:100B800007B0BDE8F08F00008000002004010020C5
:100B90000000A040000020405C0000202C0000204D
:100BA0000A00002066A64C4032000020A40000206D
:100BB0002E0000200C0000203400002070472DE99A
:100BC000F0410246002500260020002300240027D3
:100BD00091F803C00CF00F0591F803C00CF0100C55
:100BE000BCF1000F03D091F802C04CEA050591F862
:100BF00000C0BCF1000F31D0146800202BE04FF092
:100C0000010C0CFA00F3B1F800C00CEA03069E4296
:100C100020D183004FF00F0C0CFA03F7BC4305FA08
:100C200003FC4CEA040491F803C0BCF1280F06D180
:100C30004FF0010C0CFA00FCC2F814C00AE091F865
:100C400003C0BCF1480F05D14FF0010C0CFA00FCB9
:100C5000C2F810C0401C0828D1D31460B1F800C0FD
:100C6000BCF1FF0F34DD546800202EE000F1080CC9
:100C70004FF0010808FA0CF3B1F800C00CEA0306C3
:100C80009E4221D183004FF00F0C0CFA03F7BC43B6
:100C900005FA03FC4CEA040491F803C0BCF1280FE8
:100CA00005D100F1080C08FA0CF8C2F8148091F88C
:100CB00003C0BCF1480F07D100F1080C4FF0010848
:100CC00008FA0CF8C2F81080401C0828CED35460F3
:100CD000BDE8F0810161704710B5044601231A4652
:100CE00021460948FFF75AFB01210748FFF7B7FBE8
:100CF00000BF02210448FFF715FB0028F9D0024885
:100D0000FFF70CFB10BD00000024014000BFFEE710
:100D10004CF6CC40014908607047000000300040AC
:100D20004AF6AA20014908607047000000300040E0
:100D30000149486070470000003000400149886068
:100D40007047000000300040014908607047000013
:100D50000030004008B50121042000F0D1F8012046
:100D6000ADF8000010208DF8030003208DF802007C
:100D700069460448FFF723FF01210248FFF7AAFF55
:100D800008BD00000008014000BFFEE770470000FA
:100D900070B5002100230F22C47804B3154C2468D9
:100DA00004F4E064C4F5E064210AC1F10403CA401C
:100DB000447804FA03F184781440214309010E4C6D
:100DC0000678A155047804F01F050124AC4005788D
:100DD0006D11AD0005F1E025C5F8004109E004788A
:100DE00004F01F050124AC40044D0678761145F847
:100DF000264070BD0CED00E000E400E080E100E082
:100E00002DE9F04706460D461446304601F004F839
:100E1000234901EB44114861284600F0FDFF2049B9
:100E200001EB441188611E4A02EB441291691C4A8D
:100E300002EB4412506901F0D3F8194901EB441157
:100E4000C860174A02EB44121169154A02EB4412BA
:100E5000D06801F0C5F88146114800EB44104168A4
:100E6000484600F0F1FF07460D4A02EB4412D168F4
:100E70000B4A02EB4412106800F0E6FF8046394648
:100E800000F04CFF064901EB4411C861044800EB37
:100E90004410C068024901EB44110861BDE8F087C5
:100EA000A400002010B5064C04EB43142060044C51
:100EB00004EB43146260024C04EB4314A16010BDC8
:100EC000A40000207047000001460020034A50683B
:100ED00020F440400843506070470000001002407A
:100EE00029B1064AD2690243044BDA6104E0034A9D
:100EF000D2698243014BDA61704700000010024062
:100F000029B1064A92690243044B9A6104E0034AFC
:100F100092698243014B9A617047000000100240C1
:100F200029B1064AD2680243044BDA6004E0034A5E
:100F3000D2688243014BDA60704700000010024023
:100F4000704710B500F002F810BD00000CB500208D
:100F5000019000903F48006840F480303D490860AF
:100F600000BF3C48006800F4003000900198401C2D
:100F70000190009818B90198B0F5A06FF1D13548EB
:100F8000006800F4003010B10120009001E0002062
:100F90000090009801285CD12F48006840F01000B4
:100FA0002D4908600846006820F0030008600846E4
:100FB000006840F002000860264840682549486003
:100FC0000846406848600846406840F480604860D1
:100FD0000846C06A214908401E49C8620846C06ADE
:100FE0001F4908431B49C8620846006840F08060FA
:100FF000086000BF1748006800F000600028F9D0C2
:101000001448406820F47C10124948600846406843
:1010100040F4E81048600846006840F080700860BE
:1010200000BF0C48006800F000700028F9D00948A3
:10103000406820F00300074948600846406840F0D7
:101040000200486000BF0348406800F00C00082818
:10105000F9D10CBD001002400020024000F0FEFF5C
:1010600014080100042808D14FF0E021096941F07B
:1010700004014FF0E022116107E04FF0E02109691F
:1010800021F004014FF0E022116170470C48008804
:10109000401C0B4908800B480078401C0949087027
:1010A00009480078401C0849087008480088401C1E
:1010B0000649088006480088401C0549088070479A
:1010C0000000002006000020070000200200002091
:1010D0000400002010B51648006840F001001449D3
:1010E00008600846406813490840114948600846AE
:1010F0000068114908400E4908600846006820F45D
:10110000802008600846406820F4FE0048600846D9
:10111000006820F0A05008604FF47F008860002035
:10112000C862FFF70EFF4FF000600449086010BD71
:10113000001002400000FFF0FFFFF6FE08ED00E0A7
:1011400010B540F225511D4800F03EF810B31B4881
:1011500000F064F8C4B21A48008800F40040C8B92E
:101160001748008800F4804060B10A2C03D00020AA
:101170001349088020E01248008840F400401049DC
:10118000088019E00D2C06D10D48008840F48040FD
:101190000B49088010E00A480088C0F30D00094997
:1011A0000C5407480088401C054908800846008800
:1011B000C72801DD0020088010BD00000038014074
:1011C0007C0000201C01002070B502460024002392
:1011D0000025002040F66A16B14200D100BFC1F3DD
:1011E000421501F01F03012606FA03F3012D02D177
:1011F0009689334006E0022D02D1168A334001E081
:10120000968A33400C12012606FA04F416883440FC
:1012100013B10CB1012000E0002070BD01468888A8
:10122000C0F30800704700BFFEE7014600BF7047EB
:101230002DE9F0418AB004460D4616461F46DDF8FA
:10124000408001210420FFF75BFE01214806FFF7E3
:1012500047FE4FF48050ADF8240003208DF826009F
:1012600018208DF8270009A92F48FFF7A8FC4FF494
:101270000060ADF8240048208DF8270009A92A480D
:10128000FFF79DFC00208DF81E008DF81F008DF8E3
:10129000200001208DF8210000208DF822008DF81B
:1012A00023008DF81A808DF81B408DF81C608DF896
:1012B0001D50ADF8187006A91C48FFF7ACF90020C6
:1012C0008DF812008DF8130001208DF81400802095
:1012D000ADF808000020ADF80A004FF6FF70ADF839
:1012E0000C00ADF80E000020ADF8100001208DF8C4
:1012F000150002A8FFF702F9012202210B48FFF7AF
:1013000081F914208DF8040001208DF805000020DB
:101310008DF8060001208DF8070001A8FFF738FDC1
:1013200000200AB0BDE8F0810008014000640040E0
:101330000021425C02F00F02012A04D0022A11D0DF
:10134000032A2FD11EE04256184B1A604A1C8256BF
:101350005A600A1D8256CB1CC35C03EB0222134B5E
:101360009A6020E04256114BDA604A1C83560F4ABD
:1013700013610A1D8256CB1CC35C03EB02230B4A8C
:10138000536110E04256094B9A614A1C8356074A42
:10139000D3610A1D8256CB1CC35C03EB0223034AB4
:1013A000136200E000BF00BF704700008000002013
:1013B000F0B585B007460D460024042000900020BB
:1013C0008DF808008DF809008DF80A5000BF05E07F
:1013D000395D0DF10B000155601C84B2AC42F7DBA6
:1013E00069460E48FFF719FA0646002401E0601C22
:1013F00084B231460948FFF7A3FA18B940F6FF70E6
:101400008442F4DB002405E000210DF10B000155BE
:10141000601C84B2AC42F7DB05B0F0BD0064004054
:101420002DE9F0418AB004460D4616461F46DDF808
:10143000408001210820FFF763FD01214FF0C060CB
:10144000FFF74EFD4FF40050ADF8240003208DF857
:10145000260018208DF8270009A92F48FFF7AFFBB9
:101460004FF48050ADF8240048208DF8270009A9DA
:101470002948FFF7A4FB00208DF81E008DF81F00FF
:101480008DF8200001208DF8210000208DF8220029
:101490008DF823008DF81A808DF81B408DF81C60A4
:1014A0008DF81D50ADF8187006A91C48FFF7B3F869
:1014B0000E208DF8120000208DF8130001208DF809
:1014C00014008020ADF808000020ADF80A00ADF847
:1014D0000C004FF6FF70ADF80E000020ADF81000C4
:1014E00001208DF8150002A8FFF708F8012202215B
:1014F0000A48FFF787F840208DF8040001208DF896
:1015000005008DF806008DF8070001A8FFF740FCE4
:1015100000200AB0BDE8F081000C014000680040E6
:101520002DE9F04385B00746894615461E4600243E
:10153000009700208DF808008DF809008DF80A60EA
:101540000DF10B000655611C4754A11C00F80190D9
:101550000022E11C4254082E0CD1211D4554C5F334
:101560000722611D4254C5F30742A11D42542A0EB1
:10157000E11D425469460A48FFF74FF980460024AE
:1015800001E0601C84B241460548FFF7D9F918B95B
:1015900040F6FF708442F4DB05B0BDE8F083000044
:1015A0000068004010B56FF00400FFF75BFD0A48CB
:1015B00000680A49B0FBF1F0094908700846007854
:1015C00000EB4001C1EBC0104FF6FF7101EAC00013
:1015D0000449088010BD00001800002000127A00A5
:1015E000740000207600002070B506460024002517
:1015F00005E03046FFF770FB0444681CC5B2C82DF7
:10160000F7DBC820B4FBF0F080B270BD70B50546C2
:101610000C4645F25550FFF797FB2846FFF788FB2D
:101620002046FFF78BFBFFF77BFBFFF771FB70BDDD
:1016300000B587B001214FF40170FFF761FC4FF452
:101640000040FFF741FC7020ADF8040000208DF849
:10165000070001A91748FFF7B2FA1748FEF726FE60
:10166000002002908DF80C008DF80D004FF46020E2
:1016700004900020059001208DF8180002A90E4862
:10168000FEF764FE01210C48FEF704FE0A48FEF74F
:10169000E1FE00BF0848FEF74EFE0028FAD10648DA
:1016A000FEF7E8FE00BF0448FEF72EFE0028FAD140
:1016B00007B000BD000801400024014030B50246DB
:1016C000002041F040035BB2134C235441F060030F
:1016D0005BB2124C235411240F4D431CEC540F4D9C
:1016E000431CEC5488240C4D831CEC540B4D831C80
:1016F000EC5454B2084DC31CEC5454B2074DC31CF7
:10170000EC54130A5CB2044D031DEC54130A5CB292
:10171000024D031DEC5430BD640000206C0000201D
:1017200008B5FFF7D7FCFFF73DFFFFF781FF40F259
:1017300071210420FFF76AFF0020042308220721FB
:101740000090FFF775FD0020042308220721009078
:10175000FFF766FE674800684FF47A72B0FBF2F15B
:10176000B1F1807F01D301201DE021F07F40401EB8
:101770004FF0E022506150170F22002807DA1307BC
:101780001D0E5D4B00F00F04241F1D5503E01307D1
:101790001C0E5A4B1C5400BF00204FF0E0229061F9
:1017A00007201061002008B100BFFEE70420FFF70A
:1017B0001BFF534908800520FFF716FF5149088099
:1017C0000620FFF711FF50490880FFF7C3FA90E0A9
:1017D0004E480088B0F5FA7F0EDB00204C490880A7
:1017E0004A4908804B48006808B9012000E0002001
:1017F00048490860FFF794FA4748007832286FDBC1
:1018000046480078401C4549087008460078012881
:1018100006D0022822D003283ED004285ED159E009
:101820000420FFF7E1FE3E49088009884FF4B472B6
:1018300001FB02F0C11700EB11510913384A118066
:10184000012110460088FFF739FF05213548FFF7D1
:10185000AFFD05213448FFF7ABFD40E00520FFF761
:10186000C3FE3249088009884FF4B47201FB02F0CC
:10187000C11700EB115109132C4A118002211046A7
:101880000088FFF71BFF05212748FFF791FD052181
:101890002448FFF78DFD22E00620FFF7A5FE24492E
:1018A000088009884FF4B47201FB02F0C11700EB05
:1018B000115109131E4A1180032110460088FFF7B9
:1018C000FDFE05211748FFF773FD05211648FFF7B8
:1018D0006FFD04E000201149087000E000BF00BF68
:1018E00014480088142804DD002012490880FFF7FE
:1018F00077F86DE71800002018ED00E000E400E044
:101900001000002012000020140000200000002021
:101910000200002080012142060000200800002073
:101920000A000020640000206C0000200C00002051
:101930000E000020040000202DE9C04130B4DFF883
:10194000A0C23CEA111418BF3CEA131400F0EC806A
:1019500081EA03051CEA111444EAD57418BF1CEA95
:10196000131500F0C780A4EB05044FF0004545EACD
:10197000C12145EAC32341EA505143EA525304F1DD
:101980007F74994204F500344FEAC0204FEAC22226
:1019900008BF904200F09C804FEA13650FF240169A
:1019A000765D4FEA134506FB05F7C7F1807706FB26
:1019B00007F74FEAD737A7FB03687642C8F58038A8
:1019C000A7FB06CE38BFA8F1010807FB08E64FF0D9
:1019D000000EA6FB028CE6FB03CEDCF1000CCEF180
:1019E000004E38BFAEF1010EA6FB0C584FF00007B9
:1019F0004FF00005E6FB0E87A1FB08C6A0FB07CE53
:101A000016EB0E0645F10005E1FB076515F1E04E0A
:101A10007EBFA4F580345FEA46066D4116F180076B
:101A200045F100054FEA17274FEA066647EA0567C2
:101A3000A6F1DE46B6F1805F4FEA15251FD938467C
:101A400024F0010C05EBC471BCF1FE6F01EB0C112D
:101A500002D8F0BCBDE8008124425CBF01F5801EC5
:101A60009EEAC47F02D4F0BCBDE80081244238D491
:101A7000F0BCA1F1C041BDE8004100F049B94FEA16
:101A8000D22242EA43524FEAD323A7FB02864FEA0F
:101A9000D02040EA415007FB03661EEA0E0F4FEAD2
:101AA000D12105FB026658BFA6EB0056B6EB0056E7
:101AB0004FEA520E4EEAC37E18EB0E0E56EB530E53
:101AC000BDD518EB02085E417F1C55F10005B6E755
:101AD0004FF480154FF000074FF000064FF000085C
:101AE000ADE7F0BC4FF0000001F1C04101F0004152
:101AF000BDE8008111EA0C1F0CEA131500D00CE0C0
:101B000013EA0C1F00F025804FF00000F0BC81EAC2
:101B1000030101F00041BDE80081F0BCBDE80041D7
:101B200081EA030100F0F4B8F0BCBDE8004170B5F3
:101B300000F0A0F8097EFC3E00F007B881EA03013E
:101B40004FF0000001F00041704781EA030100F00E
:101B5000DFB8F0BCBDE800414FF0000021497047FC
:101B6000FFFDFBF9F7F5F4F2F0EEEDEBE9E8E6E462
:101B7000E3E1E0DEDDDBDAD8D7D5D4D3D1D0CFCDE9
:101B8000CCCBCAC8C7C6C5C4C2C1C0BFBEBDBCBB22
:101B9000BAB9B8B7B6B5B4B3B2B1B0AFAEADACAB1D
:101BA000AAA9A8A8A7A6A5A4A3A3A2A1A09F9F9EF7
:101BB0009D9C9C9B9A9999989797969595949393A9
:101BC000929191908F8F8E8E8D8C8C8B8B8A898940
:101BD00088888787868585848483838282818180C3
:101BE0000000FF070000F87F4FEA41034FEA53531C
:101BF000A3F58063D3F11E03C8BFD3F1210C0CDD24
:101C00004FF0004242EAC12242EA505232FA03FC4B
:101C10008CEAE17CACEBE1707047102BC4BF002074
:101C2000704703F5787CBCF1FF3F04D06FF00042B1
:101C300082EA2100704770B500F01CF849922480B8
:101C400000207047F2E710F0004248BF4042B0FA6F
:101C500080F310FA03F10AD0C3F11D0303F580638A
:101C60004FEA415002EB035202EBD12170474FF093
:101C7000000070470EF1020E2EF0030E5EF8046BAA
:101C8000364205D4012A43EB030515F5001F12D88F
:101C9000012841EB010C1CF5001F0CD80ED14FEAB6
:101CA000D17C15F5001F0CEB4C0C0CF1020C08BF9D
:101CB0004CEBD37C04E04FF0080C01E04FEAD37CFE
:101CC0000CEB4C0526FA05F606F00706B6F1040CF7
:101CD00006D20EEB860CBDE870404CF0010C60475C
:101CE000DFE80CF0090B02024FF000414FF000005A
:101CF000A1F5002170BD19461046012851EB0104E1
:101D000018BFD4F5001484BF002001F0004170BD5D
:101D10000808A0F500114FEA3101704790EA010F61
:101D200048BF81F0004100F16281421A3CBF801A35
:101D300089184FEAD0524FF07F4C1CEA410FA2EBBA
:101D4000D15318BF9CEA026F00F03B804FF0004C6B
:101D50004CEA00204CEA012121FA03FC10EB0C0CA8
:101D60001ED202F1FF325FEA1C2040EBC25038BFA6
:101D700070471CF07F0F4FEA400C18BFBCF17F4F3B
:101D800038BF7047C3F12003994008BF20F001001D
:101D9000BCF17F4F38BF7047A0F1C04000F01BB9C5
:101DA0004FEA3C00000A40EBC25028BF1CF0FF0F76
:101DB0004FEA400CE6D018BFBCF17F4F38BF7047E8
:101DC000EAE79CEA026F05D010EA5C0F08BF00F05A
:101DD0000040704710B500F0B8F800BF64FBBE3E8D
:101DE00041000B0ED3F19E0208D950F400034FEAD4
:101DF000032323FA02F048BF4042704710B500F0B9
:101E0000A4F800BF49922480002070476FF0004280
:101E100082EA20007047000010F0004148BF4042B5
:101E2000B0FA80F310FA03F2C3F19D030BD051EA2C
:101E3000C35101EB1220530638BF704700F1010077
:101E400008BF20F0010070474FF47F0C1CEAD0124D
:101E50001EBF1CEAD11392EA0C0F93EA0C0F00F09C
:101E6000478090EA010F48BF42F480724FF0004C67
:101E70004CEA00204CEA012102EB0302A0FB011313
:101E8000A2F50002002918BF43F001035B0028BF40
:101E90004FEA330342EB22425FEA132C4CEBC25071
:101EA0002EBFBCEB436FB2F57C0F70474FEA036C5B
:101EB000BCF1004F08BF20F00100B2F57C0F38BF25
:101EC00070470BD582F0FF0212F5803FC8BF704704
:101ED00000F1C040D8BF00F00040704700F5000C92
:101EE0005FEA4C0C48BF7047B0F1C04000F073B8D7
:101EF00090EA010F0CEAD11348BF42F480726245A8
:101F000038BF634504D280EA010000F0004070470A
:101F100010B500F01AF800BF8900013E00F007B8C4
:101F200000F009B85FEA410C5FEA1C6C08D080EA57
:101F3000010000F050B85FEA400C5FEA1C6CF6D17B
:101F40004FF00040A0F5800070470EF1020E2EF019
:101F5000030E5EF8044B244204D44FEA4102B2F16E
:101F60007F4F11D84FEA4003B3F17F4F0CD80ED109
:101F70004FEAD07CB2F17F4F0CEB4C0C0CF1020C11
:101F800008BF4CEBD17C04E04FF0080C01E04FEAB5
:101F9000D17C0CEB4C0324FA03F404F00704B4F1F5
:101FA000040C06D20EEB840CBDE810404CF0010C82
:101FB0006047DFE80CF0070802024FF00040A0F590
:101FC000800010BD0846420018BFD2F1807288BF61
:101FD00000F0004010BDFF2141EAD050C00570471D
:101FE00090EA010F48BF81F000413FF59EAE421AD2
:101FF00004D882F00042A0EB020011444FEAD05214
:102000004FF07F4C1CEA410FA2EBD15318BF9CEA62
:10201000026F4AD04FF0004C4CEA00204CEA0121FC
:1020200021FA03FCB0EB0C0C0FD412F0FE0F36D0EB
:102030005FEA4C001DD5001240EBC25038BF70471C
:102040001CF03F0F18BF70470BE0A2F101025FEADE
:102050001C2040EBC25038BF70471CF07F0F18BFE8
:102060007047C3F12003994014BF401E20F00100C7
:10207000704780084FEA122308BF7047B0FA80FC0F
:10208000A2EB0C02CCF1280C60FA0CF093EA122FB0
:1020900004BF00EBC25070474FEAC3707047130A89
:1020A0005FEADC1008BF7047F6E79CEA026F04D0D5
:1020B00010EA5C0F08BF0020704710B5FFF745FF1E
:1020C00040DFF63E81F0004070470000EC20000841
:1020D00000000020800000008C0100086C21000836
:1020E00080000020C8070000A801000800000000D0
:1020F00000000000000000000000000000000000E0
:102100000000000000A24A040000000000000000DF
:102110000102030406070809000000000000000097
:1021200000000000000000000000000000000000AF
:10213000000000000000000000000000000000009F
:10214000000000000200000000000000000000008D
:10215000000000000000000000000000000000007F
:0C21600000000000000000000000000073
:04000005080001519D
:00000001FF
